{
  "_format": "hh-sol-artifact-1",
  "contractName": "Staking",
  "sourceName": "contracts/Staking.sol",
  "abi": [
    {
      "inputs": [
        {
          "internalType": "address",
          "name": "stakingToken",
          "type": "address"
        },
        {
          "internalType": "address",
          "name": "rewardToken",
          "type": "address"
        }
      ],
      "stateMutability": "nonpayable",
      "type": "constructor"
    },
    {
      "inputs": [],
      "name": "Staking__NeedsMoreThanZero",
      "type": "error"
    },
    {
      "inputs": [],
      "name": "Staking__TransferFailed",
      "type": "error"
    },
    {
      "inputs": [],
      "name": "Withdraw__TransferFailed",
      "type": "error"
    },
    {
      "inputs": [],
      "name": "REWARD_RATE",
      "outputs": [
        {
          "internalType": "uint256",
          "name": "",
          "type": "uint256"
        }
      ],
      "stateMutability": "view",
      "type": "function"
    },
    {
      "inputs": [],
      "name": "claimReward",
      "outputs": [],
      "stateMutability": "nonpayable",
      "type": "function"
    },
    {
      "inputs": [
        {
          "internalType": "address",
          "name": "account",
          "type": "address"
        }
      ],
      "name": "earned",
      "outputs": [
        {
          "internalType": "uint256",
          "name": "",
          "type": "uint256"
        }
      ],
      "stateMutability": "view",
      "type": "function"
    },
    {
      "inputs": [
        {
          "internalType": "address",
          "name": "account",
          "type": "address"
        }
      ],
      "name": "getStaked",
      "outputs": [
        {
          "internalType": "uint256",
          "name": "",
          "type": "uint256"
        }
      ],
      "stateMutability": "view",
      "type": "function"
    },
    {
      "inputs": [],
      "name": "rewardPerToken",
      "outputs": [
        {
          "internalType": "uint256",
          "name": "",
          "type": "uint256"
        }
      ],
      "stateMutability": "view",
      "type": "function"
    },
    {
      "inputs": [
        {
          "internalType": "address",
          "name": "",
          "type": "address"
        }
      ],
      "name": "s_balances",
      "outputs": [
        {
          "internalType": "uint256",
          "name": "",
          "type": "uint256"
        }
      ],
      "stateMutability": "view",
      "type": "function"
    },
    {
      "inputs": [],
      "name": "s_lastUpdateTime",
      "outputs": [
        {
          "internalType": "uint256",
          "name": "",
          "type": "uint256"
        }
      ],
      "stateMutability": "view",
      "type": "function"
    },
    {
      "inputs": [],
      "name": "s_rewardPerTokenStored",
      "outputs": [
        {
          "internalType": "uint256",
          "name": "",
          "type": "uint256"
        }
      ],
      "stateMutability": "view",
      "type": "function"
    },
    {
      "inputs": [],
      "name": "s_rewardToken",
      "outputs": [
        {
          "internalType": "contract IERC20",
          "name": "",
          "type": "address"
        }
      ],
      "stateMutability": "view",
      "type": "function"
    },
    {
      "inputs": [
        {
          "internalType": "address",
          "name": "",
          "type": "address"
        }
      ],
      "name": "s_rewards",
      "outputs": [
        {
          "internalType": "uint256",
          "name": "",
          "type": "uint256"
        }
      ],
      "stateMutability": "view",
      "type": "function"
    },
    {
      "inputs": [],
      "name": "s_stakingToken",
      "outputs": [
        {
          "internalType": "contract IERC20",
          "name": "",
          "type": "address"
        }
      ],
      "stateMutability": "view",
      "type": "function"
    },
    {
      "inputs": [],
      "name": "s_totalSupply",
      "outputs": [
        {
          "internalType": "uint256",
          "name": "",
          "type": "uint256"
        }
      ],
      "stateMutability": "view",
      "type": "function"
    },
    {
      "inputs": [
        {
          "internalType": "address",
          "name": "",
          "type": "address"
        }
      ],
      "name": "s_userRewardPerTokenPaid",
      "outputs": [
        {
          "internalType": "uint256",
          "name": "",
          "type": "uint256"
        }
      ],
      "stateMutability": "view",
      "type": "function"
    },
    {
      "inputs": [
        {
          "internalType": "uint256",
          "name": "amount",
          "type": "uint256"
        }
      ],
      "name": "stake",
      "outputs": [],
      "stateMutability": "nonpayable",
      "type": "function"
    },
    {
      "inputs": [
        {
          "internalType": "uint256",
          "name": "amount",
          "type": "uint256"
        }
      ],
      "name": "withdraw",
      "outputs": [],
      "stateMutability": "nonpayable",
      "type": "function"
    }
  ],
  "bytecode": "0x60806040523480156200001157600080fd5b5060405162001217380380620012178339818101604052810190620000379190620000e0565b600160008190555081600160006101000a81548173ffffffffffffffffffffffffffffffffffffffff021916908373ffffffffffffffffffffffffffffffffffffffff16021790555080600260006101000a81548173ffffffffffffffffffffffffffffffffffffffff021916908373ffffffffffffffffffffffffffffffffffffffff16021790555050506200017a565b600081519050620000da8162000160565b92915050565b60008060408385031215620000fa57620000f96200015b565b5b60006200010a85828601620000c9565b92505060206200011d85828601620000c9565b9150509250929050565b600062000134826200013b565b9050919050565b600073ffffffffffffffffffffffffffffffffffffffff82169050919050565b600080fd5b6200016b8162000127565b81146200017757600080fd5b50565b61108d806200018a6000396000f3fe608060405234801561001057600080fd5b50600436106100f45760003560e01c80636aa0838f11610097578063b88a802f11610066578063b88a802f14610275578063bea081511461027f578063cd3daf9d146102af578063f245ace4146102cd576100f4565b80636aa0838f146101ed578063a694fc3a1461020b578063ab32eb6914610227578063adca9b7214610257576100f4565b8063399080ec116100d3578063399080ec146101635780635997bb37146101935780636374cc00146101b15780636a74a0fc146101cf576100f4565b80628cc262146100f95780632e1a7d4d14610129578063304ac91b14610145575b600080fd5b610113600480360381019061010e9190610c55565b6102fd565b6040516101209190610dc7565b60405180910390f35b610143600480360381019061013e9190610caf565b61041c565b005b61014d61065f565b60405161015a9190610dc7565b60405180910390f35b61017d60048036038101906101789190610c55565b610665565b60405161018a9190610dc7565b60405180910390f35b61019b6106ae565b6040516101a89190610dc7565b60405180910390f35b6101b96106b3565b6040516101c69190610d8c565b60405180910390f35b6101d76106d9565b6040516101e49190610dc7565b60405180910390f35b6101f56106df565b6040516102029190610dc7565b60405180910390f35b61022560048036038101906102209190610caf565b6106e5565b005b610241600480360381019061023c9190610c55565b61096a565b60405161024e9190610dc7565b60405180910390f35b61025f610982565b60405161026c9190610d8c565b60405180910390f35b61027d6109a8565b005b61029960048036038101906102949190610c55565b610b83565b6040516102a69190610dc7565b60405180910390f35b6102b7610b9b565b6040516102c49190610dc7565b60405180910390f35b6102e760048036038101906102e29190610c55565b610bfe565b6040516102f49190610dc7565b60405180910390f35b600080600660008473ffffffffffffffffffffffffffffffffffffffff1673ffffffffffffffffffffffffffffffffffffffff1681526020019081526020016000205490506000600760008573ffffffffffffffffffffffffffffffffffffffff1673ffffffffffffffffffffffffffffffffffffffff1681526020019081526020016000205490506000610390610b9b565b90506000600860008773ffffffffffffffffffffffffffffffffffffffff1673ffffffffffffffffffffffffffffffffffffffff168152602001908152602001600020549050600081670de0b6b3a764000085856103ee9190610ed4565b876103f99190610e7a565b6104039190610e49565b61040d9190610df3565b90508095505050505050919050565b33610425610b9b565b6004819055504260058190555061043b816102fd565b600860008373ffffffffffffffffffffffffffffffffffffffff1673ffffffffffffffffffffffffffffffffffffffff16815260200190815260200160002081905550600454600760008373ffffffffffffffffffffffffffffffffffffffff1673ffffffffffffffffffffffffffffffffffffffff16815260200190815260200160002081905550816000811415610500576040517f9b677fa000000000000000000000000000000000000000000000000000000000815260040160405180910390fd5b82600660003373ffffffffffffffffffffffffffffffffffffffff1673ffffffffffffffffffffffffffffffffffffffff168152602001908152602001600020600082825461054f9190610ed4565b9250508190555082600360008282546105689190610ed4565b925050819055506000600160009054906101000a900473ffffffffffffffffffffffffffffffffffffffff1673ffffffffffffffffffffffffffffffffffffffff1663a9059cbb33866040518363ffffffff1660e01b81526004016105ce929190610d63565b602060405180830381600087803b1580156105e857600080fd5b505af11580156105fc573d6000803e3d6000fd5b505050506040513d601f19601f820116820180604052508101906106209190610c82565b905080610659576040517f8ecca7d100000000000000000000000000000000000000000000000000000000815260040160405180910390fd5b50505050565b60045481565b6000600660008373ffffffffffffffffffffffffffffffffffffffff1673ffffffffffffffffffffffffffffffffffffffff168152602001908152602001600020549050919050565b606481565b600260009054906101000a900473ffffffffffffffffffffffffffffffffffffffff1681565b60035481565b60055481565b336106ee610b9b565b60048190555042600581905550610704816102fd565b600860008373ffffffffffffffffffffffffffffffffffffffff1673ffffffffffffffffffffffffffffffffffffffff16815260200190815260200160002081905550600454600760008373ffffffffffffffffffffffffffffffffffffffff1673ffffffffffffffffffffffffffffffffffffffff168152602001908152602001600020819055508160008114156107c9576040517f9b677fa000000000000000000000000000000000000000000000000000000000815260040160405180910390fd5b82600660003373ffffffffffffffffffffffffffffffffffffffff1673ffffffffffffffffffffffffffffffffffffffff16815260200190815260200160002060008282546108189190610df3565b9250508190555082600360008282546108319190610df3565b925050819055506000600160009054906101000a900473ffffffffffffffffffffffffffffffffffffffff1673ffffffffffffffffffffffffffffffffffffffff166323b872dd3330876040518463ffffffff1660e01b815260040161089993929190610d2c565b602060405180830381600087803b1580156108b357600080fd5b505af11580156108c7573d6000803e3d6000fd5b505050506040513d601f19601f820116820180604052508101906108eb9190610c82565b90508061092d576040517f08c379a000000000000000000000000000000000000000000000000000000000815260040161092490610da7565b60405180910390fd5b80610964576040517feb4c684700000000000000000000000000000000000000000000000000000000815260040160405180910390fd5b50505050565b60066020528060005260406000206000915090505481565b600160009054906101000a900473ffffffffffffffffffffffffffffffffffffffff1681565b336109b1610b9b565b600481905550426005819055506109c7816102fd565b600860008373ffffffffffffffffffffffffffffffffffffffff1673ffffffffffffffffffffffffffffffffffffffff16815260200190815260200160002081905550600454600760008373ffffffffffffffffffffffffffffffffffffffff1673ffffffffffffffffffffffffffffffffffffffff168152602001908152602001600020819055506000600860003373ffffffffffffffffffffffffffffffffffffffff1673ffffffffffffffffffffffffffffffffffffffff1681526020019081526020016000205490506000600260009054906101000a900473ffffffffffffffffffffffffffffffffffffffff1673ffffffffffffffffffffffffffffffffffffffff1663a9059cbb33846040518363ffffffff1660e01b8152600401610af3929190610d63565b602060405180830381600087803b158015610b0d57600080fd5b505af1158015610b21573d6000803e3d6000fd5b505050506040513d601f19601f82011682018060405250810190610b459190610c82565b905080610b7e576040517feb4c684700000000000000000000000000000000000000000000000000000000815260040160405180910390fd5b505050565b60086020528060005260406000206000915090505481565b6000806003541415610bb1576004549050610bfb565b600354670de0b6b3a7640000606460055442610bcd9190610ed4565b610bd79190610e7a565b610be19190610e7a565b610beb9190610e49565b600454610bf89190610df3565b90505b90565b60076020528060005260406000206000915090505481565b600081359050610c2581611012565b92915050565b600081519050610c3a81611029565b92915050565b600081359050610c4f81611040565b92915050565b600060208284031215610c6b57610c6a610fe4565b5b6000610c7984828501610c16565b91505092915050565b600060208284031215610c9857610c97610fe4565b5b6000610ca684828501610c2b565b91505092915050565b600060208284031215610cc557610cc4610fe4565b5b6000610cd384828501610c40565b91505092915050565b610ce581610f08565b82525050565b610cf481610f50565b82525050565b6000610d07600683610de2565b9150610d1282610fe9565b602082019050919050565b610d2681610f46565b82525050565b6000606082019050610d416000830186610cdc565b610d4e6020830185610cdc565b610d5b6040830184610d1d565b949350505050565b6000604082019050610d786000830185610cdc565b610d856020830184610d1d565b9392505050565b6000602082019050610da16000830184610ceb565b92915050565b60006020820190508181036000830152610dc081610cfa565b9050919050565b6000602082019050610ddc6000830184610d1d565b92915050565b600082825260208201905092915050565b6000610dfe82610f46565b9150610e0983610f46565b9250827fffffffffffffffffffffffffffffffffffffffffffffffffffffffffffffffff03821115610e3e57610e3d610f86565b5b828201905092915050565b6000610e5482610f46565b9150610e5f83610f46565b925082610e6f57610e6e610fb5565b5b828204905092915050565b6000610e8582610f46565b9150610e9083610f46565b9250817fffffffffffffffffffffffffffffffffffffffffffffffffffffffffffffffff0483118215151615610ec957610ec8610f86565b5b828202905092915050565b6000610edf82610f46565b9150610eea83610f46565b925082821015610efd57610efc610f86565b5b828203905092915050565b6000610f1382610f26565b9050919050565b60008115159050919050565b600073ffffffffffffffffffffffffffffffffffffffff82169050919050565b6000819050919050565b6000610f5b82610f62565b9050919050565b6000610f6d82610f74565b9050919050565b6000610f7f82610f26565b9050919050565b7f4e487b7100000000000000000000000000000000000000000000000000000000600052601160045260246000fd5b7f4e487b7100000000000000000000000000000000000000000000000000000000600052601260045260246000fd5b600080fd5b7f4661696c65640000000000000000000000000000000000000000000000000000600082015250565b61101b81610f08565b811461102657600080fd5b50565b61103281610f1a565b811461103d57600080fd5b50565b61104981610f46565b811461105457600080fd5b5056fea26469706673582212208c27f699ffe10f9f87088f4dc53264e76b19210eb7afb0484d5b7d3f6d988d0864736f6c63430008070033",
  "linkReferences": {},
  "deployedLinkReferences": {}
}